:100000000C9434000C943E000C943E000C943E0082
:100010000C943E000C943E000C943E000C943E0068
:100020000C943E000C943E000C943E000C943E0058
:100030000C943E000C943E000C943E000C943E0048
:100040000C943E000C943E000C943E000C943E0038
:100050000C943E000C943E000C943E000C943E0028
:100060000C943E000C943E0011241FBECFEFD8E04C
:10007000DEBFCDBF0E9440000C9465000C940000D0
:100080008FEF8AB91BB816BC95E095BD87B918B833
:1000900014B885B980E030E090E041E0A89BFECF45
:1000A00016BC45BB9F5F9A3020F09BB19F5F9BB908
:1000B00090E02BB12F3009F41BB8882311F0189B66
:0E00C0003F5F38B983B18170E9CFF894FFCF6C
:00000001FF
